:020000040800F2
:1000000000500020C503000815040008150400086E
:10001000150400081504000815040008000000007D
:1000200000000000000000000000000015040008AF
:10003000150400080000000015040008150400085D
:10004000150400081504000815040008150400082C
:10005000150400081504000815040008150400081C
:10006000150400081504000815040008150400080C
:1000700015040008150400081504000815040008FC
:1000800015040008150400081504000815040008EC
:1000900015040008150400081504000815040008DC
:1000A00015040008150400081504000815040008CC
:1000B00015040008150400081504000815040008BC
:1000C00015040008150400081504000815040008AC
:1000D000150400081504000815040008150400089C
:1000E00015040008150400080000000015040008AD
:1000F000150400081504000815040008150400087C
:10010000150400081504000815040008150400086B
:10011000150400081504000815040008150400085B
:10012000150400081504000815040008150400084B
:1001300010B5054C237833B9044B13B10448AFF321
:1001400000800123237010BD00000020000000008B
:100150006004000808B5034B1BB103490348AFF323
:10016000008008BD000000000400002060040008BA
:1001700080B483B000AF7860154B1B68144A43F01D
:1001800001031360134B144A1A607B685A1E134B09
:100190001A60134B00221A60124B1B68114A23F09D
:1001A000010313604FF080431B684FF0804243F01F
:1001B0000103136000BF0B4B1B6803F00103002B0E
:1001C000F9D000BF00BF0C37BD4680BC704700BFF0
:1001D0001C100240280000403F1901002C00004084
:1001E000240000401000004080B582B000AF0346FC
:1001F000FB71264B1B68254A23F00F031360234B2A
:100200001A68FB791B09DBB203F00F031F49134384
:100210000B601E4B1B681D4A23F0100313601B4B21
:100220001B681A4A43F0200313600220FFF7A0FF67
:10023000164B1B68154A03F020031360134B1B6811
:10024000124A23F00F031360104B1A68FB7903F076
:100250000F030E4913430B600C4B1B680B4A23F032
:1002600010031360094B1B68084A43F02003136016
:100270000220FFF77DFF054B1B68044A03F02003B3
:10028000136000BF0837BD4680BD00BF0C080140A9
:1002900080B500AF0120FFF7A7FF0220FFF7A4FF02
:1002A0000C20FFF7A1FF2820FFF79EFF00BF80BDB5
:1002B00080B582B000AF0346FB71264B1B68254A10
:1002C00023F00F031360244B1A68FB791B09DBB280
:1002D00003F00F03204913430B601F4B1B681E4A9A
:1002E00043F0100313601C4B1B681B4A43F02003B0
:1002F00013600220FFF73CFF174B1B68164A03F000
:1003000020031360144B1B68134A23F00F03136080
:10031000114B1A68FB7903F00F030F4913430B606D
:100320000D4B1B680C4A43F0100313600A4B1B680B
:10033000094A43F0200313600220FFF719FF064B20
:100340001B68054A03F02003136000BF0837BD4651
:1003500080BD00BF000801400C08014080B584B09A
:1003600000AF78600023FB600FE07B685A1C7A6066
:100370001B781846FFF79CFFFB680133FB60FB68A6
:10038000102B02D1C020FFF72FFF7B681B78002BBA
:10039000EBD100BF00BF1037BD4680BD80B500AFB8
:1003A000FFF776FF0548FFF7D9FF0548FFF7D6FFAF
:1003B0004FF47A70FFF7DCFEF7E700BF780400081F
:1003C0009C0400080D488546AFF300800C480D4999
:1003D0000D4A002302E0D458C4500433C4188C42A0
:1003E000F9D30A4A0A4C002301E013600432A24206
:1003F000FBD300F011F8FFF7D1FFFEE7005000201B
:100400000000002000000020B004000800000020D0
:100410001C000020FEE7000070B500260C4D0D4CBE
:10042000641BA410A64209D100F01AF800260A4D58
:100430000A4C641BA410A64205D170BD55F8043BBC
:1004400098470136EEE755F8043B98470136F2E746
:10045000A8040008A8040008A8040008AC040008C8
:10046000F8B500BFF8BC08BC9E467047F8B500BFA1
:08047000F8BC08BC9E46704771
:1004780053544D20333220463130335242204C43BE
:100488004420434F44452053544152544544212E5F
:100498002E2E0000534152414E472E2E00000000E0
:0404A80055010008F2
:0404AC003101000812
:04000005080003C527
:00000001FF
